:020000040800F2
:10000000700A002045010008BB280008A72300084B
:10001000B928000891120008A12B00080000000078
:10002000000000000000000000000000BF280008E1
:100030009312000800000000BD280008C128000835
:100040005F0100085F0100085F0100085F01000810
:100050005F0100085F0100085F0100085F01000800
:100060005F0100085F0100085F0100085F010008F0
:100070005F0100085F0100085F0100085F010008E0
:100080005F0100085F0100085F0100085F010008D0
:100090005F0100085F0100085F0100085F010008C0
:1000A0005F0100085F0100085F0100085F010008B0
:1000B0005F0100085F0100085F0100085F010008A0
:1000C0005F0100085F0100085F0100085F01000890
:1000D0005F010008952B00085F0100085F01000820
:1000E0005F0100085F0100085F0100085F01000870
:1000F0005F0100085F0100085F0100085F01000860
:100100005F0100085F0100085F0100085F0100084F
:100110005F0100085F0100085F0100085F0100083F
:100120005F0100085F0100085F0100085F0100082F
:10013000DFF80CD000F052FE00480047A1E90008AB
:10014000700A00200648804706480047FEE7FEE7A1
:10015000FEE7FEE7FEE7FEE7FEE7FEE7FEE7FEE777
:100160000929000831010008202A04DB203A21FA7D
:1001700002F00021704721FA02F3D040C2F12002C0
:1001800091400843194670470048704744450108AC
:1001900010B50446FFF7F8FF0068005D00F00100AD
:1001A00010BDA0F16101192900D820387047A0F1D5
:1001B0004101192900D82030704700000649074A3C
:1001C0000868504343F23902104408604008704701
:1001D0000149086070470000200000206D4EC641B4
:1001E000004870476845010840EA01039B0703D0B7
:1001F00009E008C9121F08C0042AFAD203E011F866
:10020000013B00F8013B521EF9D27047D2B201E027
:1002100000F8012B491EFBD270470022F6E710B50B
:1002200013460A4604461946FFF7F0FF204610BD64
:10023000CAB2401E10F8011F8A4202D00029F9D12B
:1002400000207047421C10F8011B0029FBD1801AC6
:10025000704710B5002200E0521C835C8C5CA34206
:1002600001D1002BF8D1D8B2E1B2401A10BDCBB207
:1002700003E00178994203D0401C521EF9D20020BD
:10028000704730B504460020034600E05B1C9342F3
:1002900003D2E05CCD5C401BF8D030BDFFF7D9BF86
:1002A000034611F8012B00F8012B002AF9D118465A
:1002B000704730B505460020034600E05B1C9342C2
:1002C00005D2EC5CC85C201A01D1002CF6D130BDFF
:1002D00030B503461D783DB10A4612F8014B1CB1FA
:1002E000AC42FAD15B1CF5E7181A30BD10B508E036
:1002F0000A4602E0A34208D0521C1378002BF9D121
:10030000401C0478002CF3D1002010BD07280FD228
:10031000DFE800F00406080E0E0C0A0005A0704786
:100320000AA0704713A070471DA0704722A0704715
:100330002BA070474E6F206572726F722028657215
:10034000726E6F203D2030290000000045444F4D63
:10035000202D2066756E6374696F6E2061726775FB
:100360006D656E74206F7574206F662072616E67A4
:10037000650000004552414E4745202D2066756EB0
:100380006374696F6E20726573756C74206E6F7420
:1003900020726570726573656E7461626C650000D1
:1003A000454E4F4D454D202D206F7574206F6620B2
:1003B0006D656D6F7279000045494E56414C202D98
:1003C00020696E76616C696420617267756D656E17
:1003D0007420746F2066756E6374696F6E00000020
:1003E000556E6B6E6F776E206572726F72000000D3
:1003F000F0B480EA0102D40F4200B2EB410F02D206
:100400000246084611464A0042D0C30DDDB2C1F390
:10041000C752AD1A202D35DAC1F3160141F400029E
:1004200004B15242C5F1200602FA06F12A411044F5
:10043000B3EBD05F23D0C4B1012DA0EBC35009DCD6
:10044000F0BC4FF0004202EAC352DBB200F50000FC
:1004500000F0FBBA400000F1807000EBC350A0F147
:10046000807040EAD170490009E0490841EAC07152
:10047000A0EBC35000F50000400800EBC350F0BCF7
:1004800000F0DABA6142012202EB4101001BF6E7FB
:10049000F0BC704781F00041AAE780F00040A7E778
:1004A00080EA010210B502F00043400022D04A0069
:1004B0001FD0010E01EB1261C0F35600C2F35602C9
:1004C00040F4000042F40002A0FB022000047F3947
:1004D000140400D0401C50EA124001D44000491ED0
:1004E000C2B20C0604EBD010401C4008802A02D097
:1004F00003E0002010BD20F00100002900DA0020F8
:10050000184310BD30B480EA010202F0004530F01B
:10051000004221F0004013D090B1C30DD40DC2F3BE
:100520001601C0F31600E41A41F4000140F4000281
:100530007D34914201D3641C00E04900002C02DAB2
:1005400030BC002070474FF400000023914201D3DB
:10055000891A034340084FEA4101F7D151B1914252
:1005600002D14FF0004105E002D24FF0010101E05D
:100570006FF0010103EBC450284430BC00F05CBABA
:10058000420005D0C0F3C7525242914201DC002024
:10059000704700EBC15070472DE9FE4F804681EA5D
:1005A0000300C00F0C46009021F0004123F00045ED
:1005B000B8EB0200A94105D24046214690461C46B0
:1005C0000B46024623F00040104347D0270DC7F3E7
:1005D0000A00C3F30A510290401A019040286BDAD6
:1005E000C3F3130040F4801B0098924620B100230F
:1005F000D2EB030A63EB0B0B01985946C0F14002A2
:10060000504600F0EBF906460D4650465946019A11
:1006100000F0F3F910EB08006141002487EA115261
:1006200084EAE7731A4340D0009A62B3019A012A20
:100630004FEA075215DC001B61EB02014FF000424C
:1006400002EA0752CDE90042001C41F58011324612
:100650002B4600F0ADFA03B0BDE8F08F40462146CE
:10066000F9E7001B61EB0201001C41F58013001843
:100670005B412018A2F5001747EB030140EAD57053
:10068000B6196D4111E06D084FEA360645EAC075AE
:100690004FEA0752001B61EB0201001C41F580117B
:1006A00049084FEA30000019514132462B4603B049
:1006B000BDE8F04F00F06DBA009801224000002321
:1006C000D0EB020263EBE073009821464FEAE0743E
:1006D000B8EB000061EB0401E9E783F000435BE75E
:1006E00081F0004158E72DE9FE4F81EA030404F050
:1006F000004421F0004100944FF0000B23F0004330
:1007000050EA01045ED052EA03045BD0C3F30A54FA
:10071000C1F30A552C44A4F2F3340194A0FB025413
:10072000C1F3130141F48011C3F3130343F48013A5
:1007300001FB024400FB034E840A970A44EA8154F9
:1007400047EA8357A4FB076802958D0A05FB0785D6
:100750004FEA932C04FB0C542705029D4FEA0658E0
:1007600047EA1637B5EB08056EEB070C870E920EBD
:1007700047EA811742EA8312A7FB0201B6EB0B019D
:1007800064EB00042B0D43EA0C335E1844EB1C5061
:10079000DA465146E7FB0201C5F313044FEA0B3377
:1007A00043EA14534FEA0432019C43EA0603A4F1DE
:1007B0000C040294009CCDE900B400F0F9F903B0F8
:1007C000BDE8F08F00200146F9E770B521F0004345
:1007D00003430CD0C1F30A550024D5EB040564EBA8
:1007E0000403D617AD1AB34102DB0020014670BDE9
:1007F000201841EB025170BDC10F80EAE07008443F
:10080000CA079623002100F020B90EB5C10F80EA77
:10081000E0700844CA07002140F233438DE80E001F
:100820000A460B4600F0C4F903B000BD00F00042D8
:1008300020F00040C10DC0F3160040F400007F29F5
:1008400001DA00207047962903DCC1F19601C84007
:1008500001E096398840002AF4D04042704770B5D4
:10086000C1F30A5201F000450024C1F3130140F224
:10087000FF3341F480119A4201DA002070BD40F24A
:1008800033439A42A2F2334203DC5242FFF76CFC3C
:1008900000E090402C43F1D0404270BD00F0004297
:1008A00030F000400AD0C10D01F56071C0F31600B0
:1008B00042EA0151C2084007114370470020014637
:1008C000704701F0004330B421F0004150EA0102CA
:1008D00006D00A0DA2F56072C1F31301002A02DCF2
:1008E00030BC00207047440F44EAC104C100E01846
:1008F00030BC00EBC25000F09FB80000002801DBC4
:10090000C0F10040002901DBC1F100418142704784
:10091000A0E8004FF0C040F804DB01B5AFF3008061
:10092000BDE8024001C10020704700F12C080C46D0
:1009300058F8040DAFF3008058F8040D85462000E8
:1009400008BF012038E9F00018E9004F704730B5C2
:100950000B46014600202022012409E021FA02F57D
:100960009D4205D303FA02F5491B04FA02F5284417
:10097000151EA2F10102F1DC30BD2DE9F05F054644
:10098000002092469B4688460646814640241BE04E
:100990002846414647462246FFF7E6FB53465A465D
:1009A000C01A914110D311461846224600F016F89D
:1009B0002D1A67EB01084F4622460120002100F066
:1009C0000DF817EB00094E41201EA4F10104DFDCF5
:1009D000484631462A464346BDE8F09F202A04DBBC
:1009E000203A00FA02F1002070479140C2F1200342
:1009F00020FA03F3194390407047202A06DBCB17F7
:100A0000203A41FA02F043EAE07306E041FA02F3C9
:100A1000D040C2F1200291400843194670477CB58E
:100A20000023CDE900330546684600F004FA694624
:100A3000284602F07FF97CBD0029A8BF7047401C02
:100A4000490008BF20F00100704710B4B0FA80FCE4
:100A500000FA0CF050EA010404BF10BC704749B121
:100A6000CCF1200421FA04F411FA0CF118BF012191
:100A700021430843A3EB0C01CB1D4FEA00614FEA71
:100A8000102042BF002010BC704700EBC350104440
:100A90000029A4BF10BC7047401C490008BF20F0CB
:100AA000010010BC7047F0B4002802DCF0BC00204C
:100AB0007047C0F3C751C0F3160040F40000CA07E6
:100AC00001D14000491E3F2202EB61050022114680
:100AD0004FF4000626FA01F31344D418844201D8D7
:100AE000001B1A464000491C1729F3DD51008142C2
:100AF00002D24FF0FF3100E0002102EBC550F0BC04
:100B0000FFF79ABF10B541000CD0C0F3C75196292A
:100B100008DC7E2909DC06DB410204D000F000403D
:100B200040F07E5010BD002010BDC1F19604C4F10C
:100B3000200100FA01F1E040FFF77EFFA04010BD68
:100B4000F0B400F0004221F0004120F00040CE0D52
:100B5000C30DC1F3160141F40001C0F316004C426D
:100B6000154640F40000761E09E010EB440002D563
:100B700082F0004240428842F7D840005B1EB342F8
:100B8000F9DA18B1F0BC0021FFF75FBF2846F0BCCE
:100B9000704710B5141E73F1000408DA401C41F1CF
:100BA000000192185B411A4301D120F0010010BDF1
:100BB0002DE9F04D92469B4611B1B1FA81F202E067
:100BC000B0FA80F220329046FFF708FF04460F4645
:100BD00040EA0A0041EA0B0153465A46084313D043
:100BE000114653EA010019D0C8F140025046FFF700
:100BF000BBFA05460E46504659464246FFF7EEFE02
:100C0000084305D0012004E020463946BDE8F08DB8
:100C10000020054346EAE0762C4337430A986305F3
:100C2000E40AA0EB08000022FD0A44EA47540A3017
:100C300002D500200146E9E7010510196941DDE907
:100C4000084500196941BDE8F04DA2E72DE9F04DD6
:100C500081EA030404F0004B21F0004514464FF0F4
:100C6000000A23F0004150EA050220D054EA0102B4
:100C70001DD0C5F30A570246C5F31303C1F3130091
:100C8000C1F30A5640F4801543F48013A7EB06081D
:100C9000101BD64608F2FD3873EB050002D308F1AD
:100CA000010801E092185B41B8F1000F03DA00205F
:100CB0000146BDE8F08D00204FF4801106468446C1
:100CC0000EE0171B73EB050705D3121B63EB05033F
:100CD00006434CEA010C49084FEA300092185B4188
:100CE00050EA0107EDD152EA030012D082EA040073
:100CF00083EA0501084305D0101BAB4106D201224F
:100D0000002306E000224FF0004302E06FF00102F2
:100D100053101AEB06004CEB085110EB0A0041EBA4
:100D20000B01BDE8F04DFFF734BFC1F30A52C1F328
:100D3000130140F2FF3341F480119A4202DA00209D
:100D40000146704740F233439A42A2F2334202DC3A
:100D50005242FFF709BAFFF741BE10B500F0004458
:100D600020F00040C20DC0F3160040F400007F2ABE
:100D700007DA7D2A00DA7D22763A00FA02F10020B5
:100D800008E0962A09DCA2F1760100FA01F1C2F12D
:100D90009602D040FFF750FE01E0963A9040002CBA
:100DA00000D0404210BD000030B5041E71F10004B7
:100DB00004DB4FF00044404264EB0101141E73F168
:100DC000000405DB1C464FF00043524263EB040372
:100DD000994208BF904230BD00207047064C074D35
:100DE00006E0E06840F0010394E8070098471034FB
:100DF000AC42F6D3FFF7A0F9284A0108484A010897
:100E00000FB4002300B589B00CA900910B996FF0C5
:100E10000042CB601E4B06931E4B07930423CDE983
:100E200001321D4A089202466B46002000F0D0F8BD
:100E300009B05DF814FB70B586B006464FF0FF3080
:100E40000091CDE90101002015460C460490324680
:100E5000694604A8FFF7D4FF02460498211825B17B
:100E600008B1084600E020462860049800280DD00C
:100E7000002A02DD0098884208D0081B0094CDE9C2
:100E800001043246694604A8FFF7BAFF06B070BDF8
:100E90000912000827120008910100089623002279
:100EA0001146FFF7D2BD00002DE9FF4F087883B04F
:100EB0009946FF2805D0491C2D2804D00024002085
:100EC00008E000200BE00124F9E700EB800003EBD1
:100ED0004000491C0B78FF2BF7D104B1404200239E
:100EE0000293147819461D462D2C01D02B2C04D1C9
:100EF000521C2D2C13D000240294AA461478FF2CE7
:100F00000FD00A25A3FB057801FB05814FF0000CEB
:100F100003FB0C11521CE3194AEB0101EEE701241B
:100F2000EAE7814453EA010002D019F5C87F06DAE6
:100F300003980021C0E9001107B0BDE8F08F00253B
:100F4000AE4E2F46DFF8B882184600F095F9CDE98D
:100F50000001B9F1000002DAC9F1000400E0044622
:100F60000023A74A1AEB030B42EB045A12E0E007F6
:100F700007D02A46334638464146FFF7B4FB0746BA
:100F800088462A46334610461946FFF7ACFB05460D
:100F90000E466410002CEAD1DDE90001B9F1000F22
:100FA0005A46534606DAFFF751FE3A464346FFF7E4
:100FB0004DFE05E0FFF797FB3A464346FFF793FBEC
:100FC000029A0AB181F00041039AC2E90001B3E735
:100FD0002DE9FF4F1F468DB0D7E901464FF0FF388E
:100FE0002E2045464FF000090B90B9696D1C0E98F4
:100FF0008847396A824688470028F6D1BAF1FF3F10
:101000000AD024F4D064002E11DDBAF12B0F08D0E1
:10101000BAF12D0F0BD102E0404611B08DE744F438
:101020008064B9696D1C0E9888478246761E6946B1
:10103000600501D52D2000E02B208DF8000001F186
:10104000010B0DF1200809E0B9696D1C0E98884765
:1010500082460F9844F40074761E0560002E02DD6F
:10106000BAF1300FF0D00B998A453ED144F080049C
:1010700006E00F99681CA9F1010944F400740860A6
:10108000B9696D1C761E0E98884782463028F0D0CC
:101090002BE00B998A4505D1200603D444F0800447
:1010A000761E18E0504602F037F808B30DF1130130
:1010B000761E44F400748B4508D2AAF130000BF878
:1010C000010B200607D5A9F1010003E0200602D498
:1010D00009F101008146A00502D50F99681C08603E
:1010E000B9696D1C0E9888478246002ED1DC53E00A
:1010F000002E51DDBAF1650F02D0BAF1450F4BD188
:10110000A00549D5B9696D1C24F44074761E0E986B
:1011100088478246002E0CDD2B2804D0BAF12D0F13
:1011200007D144F48074B9696D1C0E9888478246D3
:10113000761EE00501D52D2100E02B2108F8011BCA
:10114000CDF82C8021E00DF12901761E44F40074C5
:1011500088450CD2AAF1300010F0FF0088F800009A
:1011600002D10B99884509D908F1010806E0E0058C
:1011700001D5244801E042F20F708146B9696D1C27
:101180000E98884782460F980560002E04DD504671
:1011900001F0C2FF0028D6D1F9690E988847FF20D8
:1011A0008BF8000088F800000020069007904B465E
:1011B0006A4608A906A8FFF777FEA00502D46FF0DB
:1011C00001002AE714F0240F0AD0E00714D1DDE96A
:1011D00006123868031D3B600068C0E900120BE08E
:1011E000DDE90601FFF76DFB0146E00704D1386831
:1011F000021D3A600068016028460EE700001440B6
:101200000000F03FF1D8FFFF426842B1016811F8D9
:10121000013B23B1521EC0E900121846704701215C
:10122000C160881E704742685AB1C368016843B9FB
:1012300083688B4205D0491E521CC0E90012002071
:1012400070474FF0FF30704730B5041E71F1000455
:1012500004DB4FF00044404264EB0101141E73F1C3
:10126000000405DB1C464FF00043524263EB0403CD
:101270008B4208BF824230BD0EB540F2334202922B
:101280000022CDE900221346FFF792FC03B000BD17
:10129000FEE7704770B5064610691446002806D16F
:1012A000D4E900050A463146A368A847206170BD0D
:1012B00008B50A468DF8000001216846FFF7EAFFED
:1012C00008BD2DE9F041066907468846304600F022
:1012D00019F900252DE0F86A414600EBC504207994
:1012E00000F03F00FFF7E4FF207900F03F00042802
:1012F0001AD005DCE0B1012807D0032818D109E095
:1013000013280CD0142813D10EE041462068FFF7B3
:10131000CFFF0DE04146206800F002F908E04146A9
:10132000206800F0F6F803E04146206800F015F967
:101330006D1CB542CFDBBDE8F0812DE9F0470446D6
:10134000C8680D4608B1002600E0A669304600F0E6
:10135000D9F8B1002A46A06BFFF79CFFE86808B1F6
:10136000002700E0276A2946384600F0CBF800261F
:101370004FF004094FF0080A16E0E16B06EB46084F
:1013800051F82800294600F0E8F8E26B09EB8800E4
:101390002946105800F0B6F8E26B0AEB880029469F
:1013A000105800F0AFF8761CBE42E6DBE86808B1E2
:1013B000002700E0E7682946384600F0A3F8002639
:1013C00006E0206C294650F8360000F0C6F8761C7E
:1013D000BE42F6DBBDE8F0872DE9F0470446D06851
:1013E000154610B9A06C884202D11146002000E0D9
:1013F000114600F0B2F82946606A00F083F82946E9
:10140000A06A00F07FF8A0792946FFF751FFE07944
:101410002946FFF74DFF207A2946FFF749FF294665
:10142000606900F06FF860692A468100206BFFF761
:1014300031FF29462046FFF744FFE7682946384632
:1014400000F060F800264FF004084FF005090EE0A8
:10145000216C08EBC600085C2946FFF729FF216CC8
:1014600009EBC600085C2946FFF722FF761CBE4246
:10147000EEDB2946204600F05AF829462046BDE812
:10148000F047FFF75ABF000010B50446024604219A
:1014900017A0FFF7FFFE21465320FFF709FF214663
:1014A0000020FFF705FF2246062113A0FFF7F2FEFA
:1014B00021460420FFF7FCFE21460420FFF7F8FE3A
:1014C00021460420FFF7F4FE21460420FFF7F0FE3A
:1014D00021460420FFF7ECFE214645F2786000F03B
:1014E00018F82146BDE81040054800F019B8000082
:1014F0001B4C75610000000019930D0A1A0A0000C8
:101500000040B94313B50A4604216846FFF7C2FEFE
:101510001CBD13B50A4604216846FFF7BBFE1CBD7F
:1015200013B50A4604216846FFF7B4FE1CBD2DE939
:10153000F041C66905460F463046FFF7E3FF002439
:1015400007E0686B3A46A96C50F82400FFF744FFA7
:10155000641CB442F5DBBDE8F08138B50D4670B1CE
:101560000179042910D0C36800F110045B1C0093BA
:10157000FF2B29460AD21846FFF79AFE0EE0BDE877
:1015800038400020FFF794BEC379EDE7FF20FFF756
:101590008FFE2A4604216846FFF77CFE00992A4602
:1015A0002046491EFFF776FE38BD70472DE9FE4301
:1015B000C56804468846686D01686965696B0160A5
:1015C0006863417901F0F701417195F83120921E6D
:1015D000032A07D895F8302021F0070102F0030212
:1015E0001143417101900079022240F040000290C5
:1015F00001A920460AF01AFB00283CD0017901F02D
:101600000F01062937D194F86D7015F8336F00215A
:1016100084F86D102970D0E90030A268C2E900306A
:10162000DDE90123A068C0E90223A0680022103090
:10163000A0600091E169431A12492046103B07F06F
:1016400058FC84F86D7001002E7014D0B8F1000FB2
:1016500011D002290CD1A06810F8041C01F00F0170
:1016600004290AD008A20BA1204609F0E3FF0521B6
:10167000204607F0A1FEBDE8FE8350F8082C10328A
:10168000F1E70000D35900086E6F206D6573736138
:10169000676500006572726F7220696E205F5F6718
:1016A00063206D6574616D6574686F6420282573AF
:1016B000290000002DE9F05F90F821100024022994
:1016C00003D004218163012485E001680A6822F0C7
:1016D0000E020A6001680A6822F001020A603F4EA9
:1016E0003E4FB215DFF8F4C0DFF8F090DFF8ECA061
:1016F000DFF8E8B0DFF8E4E00168783F1301150295
:10170000ACF1640CA9F15009AAF13C0AABF1280B29
:10171000AEF1140E4FF48018B14227D9B9420ED061
:10172000614512D049451DD0514518D0594518D0B2
:10173000714501D1424615E0294EB14201D1012245
:1017400010E0274E1436B14201D110220AE0244E97
:101750002836B14206D0224A3C32914201D11A4683
:1017600000E02A461E49091F0A602BE0B94213D047
:10177000614517D0494522D051451DD059451DD04E
:10178000714501D142461AE0B14202D14FF0807258
:1017900015E0134EB14201D1012210E0104E143673
:1017A000B14201D110220AE00D4E2836B14206D0D6
:1017B0000B4A3C32914201D11A4600E02A460749C1
:1017C00080394A60012180F82110002180F8201022
:1017D000416B01B188472046BDE8F09F8000024080
:1017E000080402402DE9F84FDFF8C891002409F100
:1017F000040A0AF1040B23460F270BF1040ED1E073
:101800000125A54006EA0502AA4276D1DFF8A8C163
:101810004E68A6EB0C0866452BD00DDC032E34D0A9
:1018200005DC36B3012E19D0022E2FD11BE0112E6C
:1018300016D0122E2AD119E0B8F5881F19D006DC6F
:10184000B8F5803F15D0B8F5801F1FD111E0B8F56D
:10185000001F0ED0B8F5041F18D10AE0CB6815E0C0
:10186000CB681B1D12E0CB6808330FE0CB680C334C
:101870000CE08B682BB1012B4FF0080303D04561BE
:1018800004E0042302E0056100E00023FF2A01D800
:10189000064601E000F104064FEA840501D9A5F1EE
:1018A0002005D6F8008007FA05FC28EA0C0803FAA0
:1018B00005F548EA0508C6F800804D68ED0070D5CA
:1018C0003E4DAE6946F00106AE61AD6924F00306F7
:1018D00005F0010500953A4D06EB050CDCF80850C3
:1018E000A607360F07FA06F825EA0805DFF8D480C0
:1018F000404503D14FF0000825E052E0DFF8C880F2
:10190000404502D14FF001081DE0DFF8C08040459E
:1019100002D14FF0020816E0DFF8B480404502D152
:101920004FF003080FE0DFF8AC80404502D14FF0E4
:10193000040808E0DFF8A080404502D14FF0050818
:1019400001E04FF0060808FA06F848EA0508CCF866
:1019500008804D68D9F80060ED034D4601D5164367
:1019600000E096432E604D68DAF80060AD035546FE
:1019700001D5164300E096432E604D68DBF8006009
:10198000ED025D4601D5164300E096432E604D689A
:10199000DEF80060AD02754601D5164300E09643BF
:1019A0002E60641C0A681646E2407FF429AFBDE849
:1019B000F88F0000000401400000111000100240E8
:1019C0000000014000080140000C014000100140EF
:1019D0000014014000180140001C014001488068CB
:1019E000704700000400002002488168027811441A
:1019F0008160704704000020074810B5016841F07D
:101A000010010160032000F075F8002000F006F8D6
:101A100000F024F8002010BD0020024070B50D4DEC
:101A200004464FF47A712878B1FBF0F00A4909684E
:101A3000B1FBF0F000F0ECFA48B9102C07D200220C
:101A40002146501E00F036F800206C6070BD012069
:101A500070BD000004000020100000200C4808B5F4
:101A6000816941F001018161816901F00101009109
:101A7000C16941F08051C161C06900F0805000909F
:101A80000448416821F0E06141F00071416008BD07
:101A90000010024000000140002809DB00F01F0296
:101AA000012191404009800000F1E020C0F80011C0
:101AB00070470000F0B40E4B1B680C46C3F30223C2
:101AC000C3F10705042D00D90425191D072901D2EA
:101AD000002300E0DB1E012606FA05F1491E214025
:101AE00099409E40761E16403143F0BC01F09FB8ED
:101AF0000CED00E0064900F0070208684FF6FF030E
:101B0000184040EA0220034A104308607047000072
:101B10000CED00E00000FA052DE9F0470F46050046
:101B200061D0434E306800F00700B84209D23068F7
:101B300020F0070038433060306800F00700B842FA
:101B400051D128683B4C810712D5400703D5606806
:101B500040F4E06060602878000703D5606840F4D6
:101B6000605060606068A96820F0F0000843606021
:101B70002878C00728D06868012810D0216802287A
:101B800010D0890700292EDA616821F00301014392
:101B90006160FFF723FF804641F288390DE021683C
:101BA0008903EFE78901EDE7FFF718FFA0EB0801D4
:101BB000494502D90320BDE8F0876068696800F0F4
:101BC0000C00B0EB810FEFD1306800F00700B84295
:101BD0000BD9306820F0070038433060306800F0DF
:101BE0000700B84201D00120E5E72878400705D575
:101BF0006068E96820F4E0600843606028780007C6
:101C000006D56068296920F4605040EAC100606030
:101C100000F038F86168084AC1F30311515CC8400C
:101C20000649086006480068FFF7F8FE0020C2E792
:101C30000020024000100240E23B0108100000209A
:101C4000080000200448054900684968044AC1F3B7
:101C50000221515CC8407047100000200010024073
:101C6000F23B01080448054900684968044AC1F389
:101C7000C221515CC8407047100000200010024093
:101C8000F23B010812A185B00FC98DE80F0014A026
:101C9000144A006804905168134801F00C03042BA7
:101CA00010D0082B0ED1C1F38343C9031DF80300E4
:101CB0000AD5516804AAC1F34041515C0A4A504315
:101CC000B0FBF1F005B0704708494843FAE700005F
:101CD00002030405060708090A0B0C0D0E0F10106D
:101CE000010200000010024000127A0000093D00CD
:101CF0002DE9F84F040070D02078C04DC00749D0BE
:101D00006868C0F38100012807D06868C0F38100CB
:101D1000022809D16868C00306D52868800339D530
:101D200060680028E7D035E06068B0F5803F0BD0F0
:101D300010B1B0F5A02F11D0286820F480302860B1
:101D4000286820F4802002E0286840F48030286071
:101D5000606890B1FFF742FE06460AE0286840F44A
:101D600080202860F0E700BFFFF738FE801B642862
:101D700073D828688003F7D50CE0FFF72FFE0646DE
:101D800005E000BFFFF72AFE801B6428F0D8286812
:101D90008003F7D420789A4E80074FF001094FF066
:101DA000000839D5686810F00C0F07D06868C0F3D8
:101DB0008100022809D16868C00306D4286880071A
:101DC00014D52069012808D110E02069B0B1C6F807
:101DD0000090FFF703FE074605E00AE1FFF7FEFD6E
:101DE000C01B0228C4D828688007F7D52868616915
:101DF00020F0F80040EAC10028600DE0C6F800803D
:101E0000FFF7ECFD074604E0FFF7E8FDC01B0228E2
:101E100023D828688007F7D4207800072CD5794884
:101E2000A169D9B1C0F80090FFF7D8FD074604E0DA
:101E3000FFF7D4FDC01B02280FD8686A8007F7D5CA
:101E400071484FF4FA510068B0FBF1F0009000BF08
:101E50000098411E0091FAD20EE080E0C0F80080A8
:101E6000FFF7BCFD074604E0FFF7B8FDC01B0228E2
:101E700075D8686A8007F7D42078400760D5E8698C
:101E80000027C00008D4E86940F08050E861E869A4
:101E9000012700F0805000905C480168C90513D408
:101EA0000168834641F480710160FFF797FD824627
:101EB00006E000BFFFF792FDA0EB0A0064284ED8B1
:101EC000DBF80000C005F5D5E06801280AD008B1AC
:101ED000052813D0286A20F001002862286A20F023
:101EE000040002E0286A40F001002862E06841F244
:101EF000883B98B1FFF772FD82460BE0286A40F0FC
:101F000004002862EEE700BFFFF768FDA0EB0A01BE
:101F100059455AD8286A8007F6D50CE0FFF75EFDD0
:101F2000824605E0FFF75AFDA0EB0A0159454CD85F
:101F3000286A8007F6D41FB1E86920F08050E86174
:101F4000E06988B36968C1F38101022944D002289D
:101F5000C6F8608004D0FFF741FD044638E034E065
:101F6000FFF73CFD074604E0FFF738FDC01B0228E1
:101F70002BD828688001F7D4206AB0F5803F05D1BE
:101F80006868A16820F4003008436860D4E908015B
:101F90000843696821F4741108436860C6F86090CA
:101FA000FFF71CFD044606E025E000BFFFF716FD25
:101FB000001B022809D828688001F7D51BE000BF64
:101FC000FFF70CFD001B022802D90320BDE8F88FA3
:101FD00028688001F4D40EE00128F7D06868226AEE
:101FE00000F48031914204D1616A00F4701088429B
:101FF00001D00120EAE70020E8E7000000100240DD
:102000000000424280044242100000200070004064
:1020100010B5401EB0F1807F01D3012010BD4FF0FC
:10202000E02460610F21601700F001FE0020A06134
:1020300007202061002010BD7047000070B50268C5
:1020400004461068D168536910F00F0F50D003F0A8
:10205000010501F4907635435DD0C20705D0CA056D
:1020600003D5E26B42F00102E263420705D5DA07CD
:1020700003D0E26B42F00202E263820705D5DA0781
:1020800003D0E26B42F00402E263020705D5DA07EF
:1020900003D0E26B42F00802E263E26B002A33D025
:1020A000800604D5880602D5204600F067FC20682B
:1020B0004069E16BC0F38010090700D428B32046C3
:1020C00000F04EFC2068416949061AD5416921F0AB
:1020D00040014161606BA0B11B494163606BFFF738
:1020E000E9FA002810D0606B416BBDE870400847EA
:1020F000830610D58B060ED52046BDE8704000F053
:102100003DBC2046FFF798FF70BD2046FFF794FFC7
:102110000020E06370BD030606D50B0604D52046FB
:10212000BDE8704000F0D2BC4006F3D54806F1D5BA
:10213000D168204621F04001D160202184F8391077
:1021400000F030F970BD00005129000870B504009E
:1021500004D094F83900002510B106E0012070BDCC
:1021600084F83850204600F023F8242084F8390001
:102170002068C16821F40051C160204600F04AFC8B
:102180002068016921F4904101612068416921F0D2
:102190002A0141612068C16841F40051C160E563D2
:1021A000202084F8390084F83A00002070BD000037
:1021B00030B585B000240094019402940394006823
:1021C000184988422CD11848816941F480418161C5
:1021D000816901F480410491816941F004018161C8
:1021E0008069124D00F0040004904FF400700090DC
:1021F000022001900320039069462846FFF7F2FA77
:102200002815CDE90004694628460294FFF7EAFA4A
:10221000002211462520FFF74DFC2520FFF73CFC4E
:1022200005B030BD003801400010024000080140F8
:102230002DE9F843044690F83A00994616460D46B3
:1022400020284FD195B18EB194F83800012849D09B
:10225000012084F838000027E763222084F83A0040
:10226000FFF7BCFBA6858046E68531E00120BDE88E
:10227000F883E08D401EE085A0684346B0F5805F9E
:102280004FF000024FF020012046CDF8009004D01E
:1022900000F04DFC98B10320E9E700F048FC00286D
:1022A000F9D1206900282068406803D0C1B225F820
:1022B000011B0DE0C0F3080125F8021B08E02069AE
:1022C00000282068406801D000F07F0005F8010B6D
:1022D000E08D0028CDD1202084F83A0084F83870B1
:1022E0000020C4E70220C2E770472DE9F843044606
:1022F00090F839001F4616460D46202850D1A5B14A
:102300009EB194F8380001284AD0012084F83800A2
:102310004FF00008C4F83C80212084F83900FFF712
:102320005DFBA6848146E68426E00120BDE8F883B3
:10233000E08C401EE084A0684B46B0F5805F4FF013
:1023400000024FF080012046009703D000F0EFFB21
:10235000E8B90DE000F0EBFBC8B928882168C0F3AC
:1023600008004860206908B16D1C05E0AD1C03E061
:10237000216815F8010B4860E08C0028D8D14B4645
:10238000002240212046009700F0D1FB08B1032035
:10239000CCE7202084F8390084F838800020C5E795
:1023A0000220C3E77047FEE770B5054600F1807074
:1023B0000C46B0F1007F0BD9B4F19E4F0FDAB4F1A7
:1023C0004F4F0ED80846FEF731FAA84207DA08E068
:1023D0002846FEF711FA2146FEF790FA01D80120AF
:1023E00070BD002070BD70B505C80C464968132A41
:1023F0000CD00546032913D00146FEF77FFA15D10C
:102400002946206800F014F870B10FE01329216804
:1024100003D0BDE87040FFF7C7BF814204DA05E092
:102420002168FEF76BFA01D8012070BD002070BD55
:1024300070B5054600F180700C46B0F1007F0BD9F5
:10244000B4F19E4F0FDAB4F14F4F0ED20846FEF7AB
:10245000EDF9A84207DC08E02846FEF7CDF9214651
:10246000FEF74CFA01D2012070BD002070BD70B59E
:1024700005C80C464968132A0CD00546032913D019
:102480000146FEF73BFA15D129462068FFF78CFF7D
:1024900070B10FE01329216803D0BDE87040FFF749
:1024A000C7BF814204DC05E02168FEF727FA01D2AC
:1024B000012070BD002070BD10B5044640680BF0CF
:1024C000FDF9002805D02046BDE8104001A103F029
:1024D000E9BA10BD7472756E6361746564000000C2
:1024E00008B501226946FFF7E7FF9DF8000008BD27
:1024F0002DE9F0470E46074600F013F90446401C4C
:10250000B0F1005F02D3386808F06AFF0022E300F0
:102510001146386808F036FF3461F062002004216B
:10252000814605E0F36A01EBC005401C43F80590C5
:10253000A042F7DB002536E0F06A00EBC50838461C
:10254000FFF7CEFF042823D005DC48B101280AD0CC
:10255000032827D10EE0132813D0142822D117E026
:10256000C8F804901EE03846FFF7BAFF0121C8F80A
:10257000000015E0384600F0E2F80321C8F800003A
:102580000EE0384600F0D4F81321C8F8000007E048
:10259000384600F00CF9C8F80000007940F040011E
:1025A000C8F804106D1CA542C6DBBDE8F08700002A
:1025B0002DE9F0470C46064600F0B3F80546401CEE
:1025C000B0F1804F02D3306808F00AFFAF0000225C
:1025D0003B461146306808F0D5FEA5610146A06370
:1025E0003A463046FFF768FF304600F09AF8054655
:1025F0002649401C884202D9306808F0F1FE05EBFC
:102600004500830000221146306808F0BBFE2562B9
:10261000E0630020014605E0E26B00EB4003401C54
:1026200042F82310A842F7DB00274FF004094FF0CF
:10263000080A17E000F0BBF8E26B07EB470842F826
:102640002800304600F06DF80146E36B09EB880086
:102650001950304600F065F80146E36B0AEB88003C
:102660007F1C1950AF423046E4DB00F05AF80746B1
:10267000002506E0304600F09AF8216C41F835005C
:102680006D1CBD42F6DBBDE8F087000055555515C1
:102690002DE9F04115460C46074600F088F8A06485
:1026A00000B9A564384600F03CF86062384600F096
:1026B00038F8A0623846FFF713FFA0713846FFF7DD
:1026C0000FFFE0713846FFF70BFF2072384600F02D
:1026D00028F80546401CB0F1804F02D3386808F056
:1026E0007FFEAE00002233461146386808F04AFEED
:1026F00065610146206332463846FFF7DDFE21461C
:102700003846FFF7F5FE2146384600F072F82146BC
:10271000384600F01BF821463846BDE8F041FFF787
:1027200047BF08B504226946FFF7C6FE009808BDFA
:1027300008B504226946FFF7BFFE009808BD08B53A
:1027400004226946FFF7B8FE009808BD2DE9F04164
:102750000D460746FFF7E5FF0446401CB0F1804FE9
:1027600002D3386808F03CFE0022A3001146386806
:1027700008F008FEEC6168630020014603E06A6B24
:1027800042F82010401CA042F9DB00260BE038681C
:1027900006F065FF696B41F8260001463846AA6CD1
:1027A000FFF776FF761CA642F1DBBDE8F08138B575
:1027B0000446FFF795FE0090FF2804D104226946E5
:1027C0002046FFF779FE009A8AB1521E0092A16856
:1027D00020680BF062F8054601462046009AFFF794
:1027E0006BFE20682946009A09F0EEF838BD0020FB
:1027F00038BD2DE9F0470E460746FFF792FF044625
:10280000401CB0F1005F02D3386808F0E9FD0022F7
:10281000E3001146386808F0B5FDF460306400202C
:10282000014603E0326C42F83010401CA042F9DB54
:1028300000254FF004084FF005090EE03846FFF779
:102840004FFE326C08EBC50150543846FFF748FE86
:10285000326C09EBC5016D1C5054A542EEDBBDE89E
:10286000F0870000054808B5816941F004018161E5
:10287000806900F00400009008BD000000100240D4
:102880000C4810B50A4901604FF4E1314160002164
:1028900081600C22C160C0E904128161C161FFF74F
:1028A00055FC002803D0BDE81040FEF77EBE10BDE9
:1028B0000038014030000020FEE770477047704745
:1028C000FFF792B810B590B028216846FDF7A5FC37
:1028D00014210AA8FDF7A1FC022000900120049019
:1028E00010200024059007946846FFF701FA0F2096
:1028F000CDE90A040C940D9400210AA80E94FFF768
:102900000BF910B010BD00000D48016841F0010145
:10291000016041680B4A1140416001680A4A114058
:102920000160016821F480210160416821F4FE0109
:1029300041604FF41F0181600449C0030860704783
:10294000001002400000FFF8FFFFF6FE08ED00E077
:1029500010B5406A0021C185C184FFF76DFB10BD31
:102960000168CA6822F49072CA6001684A6922F05C
:1029700001024A61202180F83A10704710B590F8A2
:102980003A10222901D0022010BD8168B1F5805F84
:1029900011D00169002901681FD0496801F07F0347
:1029A000816A4A1C82620B70C18D491E0904090CA0
:1029B000C18518D02BE00269816A002A026852683A
:1029C00005D0D2B20A80816A491C8162ECE7C2F369
:1029D00008020A80816A891CF7E74A68816A4B1CF1
:1029E00083620A70E0E70168CA6822F02002CA60C8
:1029F0000168CA6822F48072CA6001684A6922F0DC
:102A000001024A61202180F83A10FFF76DFC002096
:102A100010BD00002DE9F041044600680169E2683C
:102A200021F44051114301612169A06808436169A3
:102A300008432168CA6841F20C639A430243CA60A2
:102A400020684169A26921F44071114341611E4926
:102A5000206864253226884202D1FFF703F901E09D
:102A6000FFF7F0F800EBC00101EB001160686FF0B8
:102A700018078000B1FBF0F2B2FBF5F2B1FBF0F306
:102A80007A4303EB8202B1FBF0F306EB0212B2FBD6
:102A9000F5F2B3FBF5F302F0F00202EB0312B1FB27
:102AA000F0F3B1FBF0F0B0FBF5F0784303EB8000FE
:102AB00006EB0010B0FBF5F0216800F00F001044A9
:102AC0008860BDE8F08100000038014090F83910BE
:102AD000212901D0022070478168B1F5805F016A29
:102AE0000BD04A1C0262026809785160C18C491EF1
:102AF0000904090CC1840ED017E009880268C1F3EB
:102B00000801516001690029016A02D0491C016273
:102B1000ECE7891CFBE70168CA6822F08002CA6002
:102B20000068C16841F04001C160002070472DE994
:102B3000F041984617460E460446069D1DE0681C67
:102B40001BD02DB1FEF74AFFA0EB0800A84214D914
:102B50002068C16821F4D071C1602068416921F00A
:102B600001014161202084F8390084F83A000020F6
:102B700084F838000320BDE8F0812068006836EA58
:102B8000000004D00020B842D9D00020F3E7012093
:102B9000F9E700000148FFF751BA000030000020BB
:102BA000FEE700000FB4024610B504A9034B0398DA
:102BB00000F0BAFA10BC5DF814FB000009660008CA
:102BC0000FB4054B10B503A9044A029800F0ACFA03
:102BD00010BC5DF814FB0000096600081800002016
:102BE0000FB4084B10B504A902AA039800F09CFA90
:102BF000044602A9002000F02EFE204610BC5DF81D
:102C000014FB0000573800084100080218BF0420D8
:102C10000A0E18BF40F001004FF07F4232EA010176
:102C200008BF40F00200012808BF052070470907CF
:102C3000090E002804DB00F1E02080F80014704742
:102C400000F00F0000F1E02080F8141D7047000034
:102C5000004870472400002030B528B1144C031FF1
:102C6000002021680A4605E0084630BD9A4203D894
:102C700010465268002AF9D1002800D041680BD0D4
:102C80000468A3EB0005A54204D11B681C4403465D
:102C9000046002E0436000E023603AB11C68D51A8A
:102CA000A54203D115682C441C6052685A6030BD9F
:102CB000280000202DE9F04782460F4C10480D4EA9
:102CC0000E4F001B4FF0000820F007054FF00109E0
:102CD00000221146504604F06FFB002802D13068F4
:102CE00010B10020BDE8F0873C60C4E90058C6F888
:102CF0000090EDE72C000020740000202800002048
:102D00007002002000214FF07E50FDF7FBBB012137
:102D1000FDF736BCFDF76CBB00210846FDF7F2BBA2
:102D200061214FF0E040FDF72BBC6FF05E0108071A
:102D3000FDF726BC10B50446D1E9000100F0B6F855
:102D4000206010BD2DE9F04D0D4614464FF07F4137
:102D5000B1EB440F9EBF4FF0FF312960BDE8F08D0D
:102D60004FF0004040EA0421C4F3C750783810F017
:102D70001F024A4B4FEA601CC2F120067B44C4F399
:102D8000C750A0F178004FEA601003EB800053F8C1
:102D90002C3008BFD0E901C612D0D0F804C093404F
:102DA0002CFA06F73B4387680CFA02FC27FA06F870
:102DB000C06807FA02F2F0404CEA080C42EA00064A
:102DC000A3FB0132ACFB01C0A6FB016101EB0C06C9
:102DD0008E4234BF4FF0010C4FF0000CC11861441B
:102DE000BCF1000F02D0814202D903E0814201D23E
:102DF000012000E00020104400F120024FEA921868
:102E00008006CA0C40EA42304F03C5F80080FDF747
:102E1000F3FC82463846FEF741F86FF01201FDF7E9
:102E2000AFFB07463046FEF739F86FF02501FDF796
:102E3000A7FB834639465046FDF7DAFA5946FDF7B7
:102E4000D7FA00F500666FF30B0651463046FDF7E2
:102E500021FB3946FDF71EFB5946FDF71EFB1049C5
:102E6000FDF71EFB07460F493046FDF719FB3946B3
:102E7000FDF7BEFA07460C493046FDF711FB39460F
:102E8000FDF7B6FA14F0004F08BFBDE8F08DC8F1A9
:102E9000805180F000402960BDE8F08DC817010026
:102EA000DB0FC92F22AAFD290000C92FF8B504465F
:102EB0000D466A4603F056FC00987E3000900028CC
:102EC0001EDC0022134620462946FEF7BDF917D026
:102ED000002140F60800FDF77FFF06462046294600
:102EE000FDF7EFFC044640F6080006EA0001FDF796
:102EF00073FF34F0004004BF022000F045F829E0E1
:102F00000098FF2828DB00210846FDF765FF00F444
:102F100040060022134620462946FDF745FF8CBF98
:102F200000250125022000F02FF84FF0FF4446B1A4
:102F3000002D0CBF4FF400004FF48000B04218BFCA
:102F4000084C04210846FDF747FF002D04BF84F01C
:102F50000040F8BD2046F8BD20462946BDE8F840AF
:102F6000FDF7AFBCFFFF7F7F02E008C8121F08C15A
:102F7000002AFAD170477047002001E001C1121FFA
:102F8000002AFBD17047000001490860704700002B
:102F9000240000202DE9FF5F82B00021DDE904302C
:102FA000020DDDF840B0034318D044F61050A2F2F1
:102FB000FF3242431514119801281FD0A5EB0B00D6
:102FC000401C5FEA000A4FF000064E4FDFF83891D0
:102FD000B046504615D5CAF1000413E011980124FB
:102FE0004AA3012801D16FEA0B010298119AC0E9A6
:102FF0000031C0E9024206B0BDE8F09FCBF100000D
:10300000DFE704460021404A491842EB0450CDE96D
:10301000001012E0E00707D032463B4640464946E2
:10302000FDF761FB8046894632463B46104619460D
:10303000FDF759FB06460F466410002CEAD1DDE986
:103040000401DDE90023BAF1000F06DAFDF74BFBBE
:1030500042464B46FDF747FB05E0FDF7F7FD4246CC
:103060004B46FDF7F3FD04460E460022284BFDF7C4
:103070009BFE03D84FF0FF30014607E00022254BAE
:1030800020463146FDF788FAFDF74FFE102409E08F
:10309000002C0ADB0A220023FDF76FFC039B303271
:1030A0001A55641E50EA0102F2D1641C039AC4F15D
:1030B00011031444119A012A03D0012208430DD1AF
:1030C0000AE0084304D000204FF0110B119072E782
:1030D000A3EB0B056D1E0DE05B4504DD4FF0000218
:1030E00005F1010504E003DA4FF00002A5F1010546
:1030F000002AECD002981199C0E90231C0E90045DC
:1031000079E70000000014400000F03F30000000AC
:103110000000F0430000E03F30380A2801D20120CF
:1031200070470020704700002DE9FF4F95B09B4687
:103130008946064600250FE2252877D10024274638
:10314000F84A0121059400E0044316F8013F203BB2
:1031500001FA03F01042F7D130782A2811D06FF02D
:103160002F033078A0F13002092A16D8059A44F0CE
:10317000020402EB820203EB42021044761C05902B
:10318000EFE759F8042B0592002A03DA504244F481
:103190000054059044F00204761C30782E2816D195
:1031A00016F8010F44F004042A280DD06FF02F0206
:1031B0003078A0F13003092B09D807EB870302EB25
:1031C0004303C718761CF3E759F8047B761C307864
:1031D0006C280FD006DC4C2817D068280DD06A2840
:1031E00014D104E0742810D07A280FD10DE044F4F3
:1031F00000140AE044F4801401E044F440147278AE
:10320000824202D104F58014761C761C3078662840
:103210000BD013DC582877D009DC002875D045285E
:10322000F6D04628F4D047281AD19DE118E063284B
:1032300035D0642879D0652812D195E1702873D0F3
:1032400008DC6728F1D069286FD06E280DD06F2870
:1032500006D1B5E073282CD0752875D0782874D0A5
:103260005A46179990476D1C75E1C4F30250022825
:1032700009D003280DD0D9F8001004280DD00D6016
:1032800009F1040967E1D9F80010EA17C1E9005211
:10329000F6E7D9F800100D80F2E70D70F0E719F8A5
:1032A000041B8DF8001000208DF80100EA46012073
:1032B00003E059F804AB4FF0FF3061074FF0000115
:1032C00002D40DE008F101018846B9420FDA8045C9
:1032D000F8DB1AF808100029F4D108E008F1010120
:1032E00088468142FADB1AF808100029F6D10598C1
:1032F0005B46A0EB080721463846179A00F094FA7F
:10330000284400EB080507E04DE029E10DE01AF83C
:10331000010B5A4617999047B8F10108F7D25B465E
:1033200021463846179A13E142E00A220092C4F37C
:1033300002524FF0000A022A08D059F804CB032A9F
:103340004FEAEC710AD00DE029E02AE009F107010B
:1033500021F00702F2E802C1914609E00FFA8CFC65
:103360004FEAEC71042A03D14FFA8CFC4FEAEC715E
:10337000002907DA0A460021DCF1000C61EB0201AA
:103380002D2202E0220504D52B228DF804200122F3
:1033900003E0E20701D02022F7E7904659E00A2136
:1033A00002E010220DE010214FF0000A00910BE026
:1033B00010224FF0000A44F004040827009203E0B2
:1033C00008224FF0000A0092C4F30252022A05D0EC
:1033D00059F804CB0021032A08D009E009F10701BC
:1033E00021F00702F2E802C1914605E01FFA8CFCC9
:1033F000042A01D10CF0FF0C4FF00008220728D559
:10340000702806D0009B83F0100353EA0A0305D00E
:103410000EE040228DF80420012208E05CEA01025F
:1034200006D030228DF804208DF805000222904647
:10343000009B83F0080353EA0A030AD15CEA010205
:1034400001D1620705D530228DF804204FF0010824
:103450007F1E582804D034A003900EA802900DE0DF
:1034600036A0F9E753466046009AFDF786FA84468F
:103470000398825C0298401E029002705CEA010090
:10348000F0D1029806A9081A00F1200A600702D5B7
:1034900024F4803400E00127574502DDA7EB0A0041
:1034A00000E0002000EB0A01009005984144401A1A
:1034B0000590E00306D45B462146179A059800F074
:1034C000B3F90544002706E001A85A46C05D1799E4
:1034D00090476D1C7F1C4745F6DBE0030CD55B462F
:1034E0002146179A059800F09FF9054404E0302022
:1034F0005A46179990476D1C0099481E0090002964
:10350000F5DC08E0029802995A460078491C0291BD
:10351000179990476D1CBAF10001AAF1010AF1DC7C
:1035200065E1000009280100303132333435363787
:1035300038396162636465660000000030313233FF
:10354000343536373839414243444546000000009F
:1035500000F058F90544761C307800287FF4ECAD73
:1035600019B02846BDE8F08F620700D4062709F19C
:10357000070222F0070CFCE80223E14603F00048B2
:103580005FEA080C02D00FF2702C0DE05FEA045CD9
:1035900002D50FF2682C07E05FEAC47C02D00FF27C
:1035A000602C01E0AFF2700C4FF0FF3823F00043C5
:1035B000CDF850C065280CD006DC452809D0462837
:1035C0001DD047283DD13DE0662818D067287ED120
:1035D00038E00021112F01DB112000E0781CCDE93B
:1035E000000106A90EA8FFF7D5FCDDE90F010E9A30
:1035F00003910021009207F1010A04914DE04FF080
:1036000000400097CDE9011006A90EA8FFF7C2FC03
:10361000DDE90F0203920E9B11990022DDF80CA048
:103620000093049211B9791C00EB010AB7EB0A0070
:1036300004D4C0F1FF3007F1010A0490AAEB07009F
:10364000019044E0012F00DA01270021112F01DD54
:10365000112000E03846CDE9000106A90EA8FFF7C9
:1036600099FCDDE90F010E9A03910021049100926B
:10367000BA4621070CD40399514500DA8A46BAF1BB
:10368000010F05DD009AAAF10101515C302908D033
:10369000B84202DA10F1040F06DA0121CDE9011077
:1036A00015E0AAF10101E9E7002805DC04990144CD
:1036B0000491AAEB000102E0411C514500DD8A465D
:1036C0000499401A401C01904FF0004002902007DE
:1036D00004D40198504501DBCDF8048000208DF81A
:1036E0004F0002980DF14F07B0F1004F25D02B206D
:1036F0000E9002984FF0020800280CDA4042029027
:103700002D200E9007E00A210298FDF720F93031B4
:10371000029007F8011DB8F10001A8F10108F2DCE0
:1037200002980028EFD1791E0E980870307800F0CA
:10373000200040F0450007F8020D12A8C01B00F160
:1037400007081498007800B1012000EB0A010198E5
:1037500001EBE07105984144401A401E0590E003DA
:1037600006D45B462146179A059800F05DF805449B
:103770001498007818B15A46179990476D1CE003C9
:1037800024D55B462146179A059800F04DF805446C
:103790001CE00498002807DBDDE90301884203DD13
:1037A0000098405C179901E0179930205A469047DD
:1037B000049805F10105401C04900198401E0190F9
:1037C00004D12E205A46179990476D1CBAF100017A
:1037D000AAF1010ADDDC05E017F8010B5A4617993A
:1037E00090476D1CB8F10001A8F10108F4DC5B46BC
:1037F0002146179A0598ABE62D0000002B0000002B
:10380000200000002DE9F041044600251E46174621
:10381000880404D405E039462020B0476D1C641E9E
:10382000F9D52846BDE8F0812DE9F0410446002590
:103830001E469046C80301D5302700E020278804A3
:1038400004D505E041463846B0476D1C641EF9D5E5
:103850002846BDE8F0810A68531C0B601070704761
:103860002DE9F04104464FF01A4000EB4400B0F15E
:10387000C85F204655D84FF0FC41B1EB440F1CD235
:1038800024F000404FF07E51FCF707FE4FF0FF316F
:10389000FCF776FE05460EF0CBF814F0004F1DBF86
:1038A0002C4F2D4E80F00040002708BF3E464FF0C1
:1038B0004041FCF7F5FD044605E0284F284E01463F
:1038C000FCF7EEFD054627492846FCF7E9FD2649A9
:1038D000FCF78EFD2946FCF7E3FD2449FCF788FD43
:1038E0002946FCF7DDFD2249FCF782FD2946FCF75D
:1038F000D7FD2049FCF77CFD804629462046FCF791
:10390000CFFD4146FCF7CCFD054631462046FCF78D
:10391000C4FD2946FCF7BEFD3946BDE8F041FCF781
:1039200067BD4FF0CC41B1EB440F84BF1248BDE8F6
:10393000F0814FF07F41B1EB440F03D2BDE8F0417D
:10394000FFF7E5B90120FFF71FFBBDE8F041FFF7E6
:10395000E3B900000000494022AA7D3A0000C93FB7
:1039600022AAFD3924FE1C3DC78AD83C1E67383D7B
:103970001B93993DAFAA2A3EDB0FC93F2DE9F84FB3
:10398000076991460C4680469A466A4603213846A6
:103990000AF089FE064600254DE0705D25280ED010
:1039A000D4E90101814203D30121204607F082FAC4
:1039B000A0682268715D431CA36011543AE06D1C3D
:1039C000FCF7E2FB0068715D405C202815D02529DA
:1039D00004D025221EA1384607F0E6F8D4E90101FB
:1039E000814203D30121204607F064FAA0682368CE
:1039F000715D421CA26019541CE0302920D053464E
:103A00004A46404631390CF027FC4FF0FF3B00227C
:103A10005946384607F038FB5A466FF0010B5946B5
:103A200038460AF005FD594638460AF0B6FD2046EC
:103A300006F0A7FE6D1C00988542AED3BDE8F88F56
:103A40004946AAEB0902204606F07FFEF2E7000095
:103A5000696E76616C696420757365206F662027D6
:103A600025632720696E207265706C6163656D65E2
:103A70006E7420737472696E670000002DE9F8435C
:103A8000074608983E691C4615468846052819D001
:103A9000062805D001B03846BDE8F043FFF76EBFF9
:103AA000032130460AF0FDFB2246294638460CF039
:103AB000ADFB01460020034600900122304609F08C
:103AC0003DFF07E0002138460CF0C6FB03213046DD
:103AD0000AF08EF94FF0FF37394630460AF0BFFD45
:103AE00028B1394630460AF0B3F958B117E06FF003
:103AF000010130460AF051FD621B294630460AF0AA
:103B000086FB0CE0394630460AF032FE014630466C
:103B10000AF03EFE024604A1304607F045F8404652
:103B2000BDE8F84306F02DBE696E76616C696420CD
:103B30007265706C6163656D656E742076616C751D
:103B40006520286120257329000000002DE9F0413F
:103B50001C460D46136806462246012198474FF041
:103B6000FF37394630460AF073F968B939463046AE
:103B70000AF0FEFD014630460AF00AFE02462346E0
:103B800004A1304607F010F82846BDE8F04106F0E1
:103B9000F8BD0000696E76616C69642076616C75B1
:103BA00065202825732920617420696E646578205A
:103BB000256420696E207461626C6520666F7220D6
:103BC00027636F6E63617427000000002DE9FC5FBE
:103BD0000646806891460A46D0F820B0C16A34682B
:103BE000584606F04FF9054640684FF0040A13287E
:103BF00019D12F68F069B84215DDE06A0AEBC701F8
:103C0000415C01F03F0299F8041001F03F018A4243
:103C100009D100EBC7014A46002008F0E7F910B1CE
:103C20003846BDE8FC9F2769D6F81C801320C5E9FB
:103C30000080216908F1010081420CDA19A16FF0BE
:103C40007C40CDE90001082304F110025846E16AE6
:103C500007F05AFBE062002150462269BA4205DDB6
:103C6000E26A00EBC7037F1CD150F6E7E16A01EB83
:103C7000C800D9E90021C0E90021F069401CF061C9
:103C800099F8040040060BD56079400708D5D9F8AB
:103C900000205079800703D02146584604F03EFFAB
:103CA0004046BEE7636F6E7374616E74730000000C
:103CB0002DE9F04188460446FCF7C4FA0546404623
:103CC000FCF7C0FA06466019414610F8017DFCF782
:103CD000E7FAA819011901F8017C00212154BDE877
:103CE000F08100002DE9FC41D0E907673468306AB3
:103CF000E569A84217DB401CA8420BDD16A1194854
:103D0000CDE90001042304F11C023846616B07F081
:103D1000FBFA60630020E169A94204DD616B41F8B0
:103D200025006D1CF7E7384605F099FC0546306A1A
:103D3000616B8200401C30628D506079400707D56E
:103D40006879800704D02A462146384604F0E6FE0A
:103D50002846BDE8FC81000066756E6374696F6E6D
:103D600073000000FFFF03002DE9FF4113460C46DE
:103D700003AA194606F01AFE0546D4E9010181425C
:103D800003D30121204607F095F8A0682227226876
:103D9000411CA160175434E02E78222E14D05C2EE2
:103DA00012D00A2E10D02EB1FCF7EEF90068805D1B
:103DB000400617D5FCF7E8F9006869783246405CA0
:103DC000202832D01DA131E0D4E90101814203D382
:103DD0000121204607F06EF8A0685C222368411C90
:103DE000A1601A54D4E90101814203D30121204684
:103DF00007F060F8A06823682A78411CA1601A5473
:103E00006D1C0398401E0390401CC5D1D4E90101EC
:103E1000814203D30121204607F04CF8A0682268B4
:103E2000411CA1601754BDE8FF8105A16846FEF75B
:103E3000D7FE6946204606F097FCE1E75C25640062
:103E40005C253033640000002DE9FC41064615A1D5
:103E50000AF007FA6FF00105294630460AF021FA08
:103E60000221304609F0E6FD6C1001AA21463046D9
:103E70000AF019FC0146002000900CA33046019A7C
:103E800006F016FF07006FF0020104D1224630460B
:103E90000AF0CEFA294630460AF07FFB3846BDE8E4
:103EA000FC81000072657475726E20003D7374644D
:103EB000696E000070B5C56918788C1A0D2815D088
:103EC0000E2813D018B11946284606F067F9002CC1
:103ED00022DD95F82C602146284606F035FB224667
:103EE00031462846BDE8704006F038BA641C06D555
:103EF0002846BDE870400022194606F0B3BB2246B2
:103F00001946284606F0AEFB012C05DD611E284649
:103F1000BDE8704006F018BB70BD000070B5C56903
:103F20000C0095F82A00204485F82A000AD000BF2A
:103F300095F82A00011B284602F03EFF29694160DE
:103F4000641EF5D170BD4168132905D100680028B1
:103F500002DDB0F1004F00D9002070472DE9F0419B
:103F600004464FF00E4000EB4400B0F1506F204685
:103F700055D84FF0FC41B1EB440F1CD224F0004067
:103F80004FF07E51FCF789FA4FF0FF31FCF7F8FA59
:103F900005460DF04DFD14F0004F1DBF2F4F304E64
:103FA00080F000402F4F08BF2F4E4FF04041FCF7EC
:103FB00077FA044605E000273E460146FCF770FA12
:103FC00005462A492846FCF76BFA2949FCF710FAFE
:103FD0002946FCF765FA2749FCF70AFA2946FCF757
:103FE0005FFA2549FCF704FA2946FCF759FA2349F8
:103FF000FCF7FEF9804629462046FCF751FA414677
:10400000FCF74EFA054631462046FCF7F1F9294601
:10401000FCF7EEF93946BDE8F041FCF7E9B94FF09D
:10402000E441B1EB440F08D9FEF7EEFD042808BFC8
:10403000FEF77BFE2046BDE8F0814FF07F41B1EBFB
:10404000440F03D2BDE8F041FEF761BE0120FEF748
:104050009BFFBDE8F041FEF75FBE00000000C9BF56
:1040600022AAFDB90000C93F22AAFD3924FE1C3D49
:10407000C78AD83C1E67383D1B93993DAFAA2A3E9C
:10408000F0B50446087989B0083815460F4603286C
:1040900003D32AA1204609F04BFB2C2120460FF028
:1040A00058F8E8B104AE2046311D04970EF00CFE1E
:1040B0009DF814000A2804D0321D3946204600F02D
:1040C00061FD206A21A3C822B0F86A004119E069A5
:1040D00000F008FE6A1C04A92046FFF7D1FF18E093
:1040E0003D21204600F094FE6946204601F04CFE3A
:1040F0000646A84216D002466B4629462046FFF7E0
:10410000D9FEAE4205DDE069721B10F82C1F891A3A
:104110000170E069072190F82C206846521E03F0D8
:1041200003F903E06946E06906F07EFA6A46391D44
:10413000E06906F0C6FA09B0F0BD000073796E744C
:104140006178206572726F720000000043206C6518
:1041500076656C73000000002DE9F0474FF068426F
:1041600002EB40030C460546B3F1654F3CBF02EB42
:104170004102B2F1654F7CD2C0F3C753C1F3C752BD
:104180009A1A1B2A06DD10F0004F14BF76487748B4
:10419000BDE8F08712F11A0F17DA11F0004F06D0C0
:1041A00010F0004F0CBF72487248BDE8F0872146FE
:1041B0002846FCF7A7F90446FEF726FD042808BFA9
:1041C000FEF7B3FD2046BDE8F0874200B2EB410F99
:1041D00025D910F0004F19BF674F684E684F694EE0
:1041E000224685F0004415460A4680F000411046FC
:1041F0000A1A5200B2F1807F40D248406249DFF88B
:104200008CA110F0004F18D04FF03F483846FCF713
:1042100041F9074651463046FCF73CF917E011F0EA
:10422000004F04BF00263746E2D010F0004F19BF00
:10423000574F584E584F594EDAE74FF07C58384692
:10424000FCF7D6F8074651463046FCF7D1F806464B
:1042500041462846FCF724F92146FCF7C9F8824676
:1042600021464046FCF71CF92946FCF716F9514651
:1042700000E037E0FCF746F9044604E02146284612
:10428000FCF740F904460146FCF70AF98046444928
:10429000FCF706F94349FCF7ABF84146FCF700F997
:1042A0004149FCF7A5F84146FCF7FAF83F49FCF70D
:1042B0009FF84146FCF7F4F83D49FCF799F80546AC
:1042C00041462046FCF7ECF82946FCF7E9F8314670
:1042D000FCF78EF82146FCF78BF83946BDE8F0472D
:1042E000FCF786B84FF07F42B2EB400F28BFB2EB2D
:1042F000410F03D2BDE8F047FEF70CBD40EA0103D1
:104300005B0008BF44F0FF410AD0B2EB400F08BF8A
:10431000B2EB410F06D125F0804024F080410546E4
:104320000C4629E7B2EB400F12BF5FEA410245F0AD
:10433000FF4004F000413FF41FAF4A0092EA4003FF
:104340003FF51AAF002AACBF4FF09F464FF03E56E4
:104350003146FCF7A5F8054631462046FCF7A0F8A3
:1043600004462846214607E7DB0FC9BFDB0FC93FDC
:10437000DB0F4940DB0F49C00000C9BF22AAFDB9CD
:104380000000C93F22AAFD390060ED3EC30ACE37C6
:10439000000049C022AA7DBA0000494022AA7D3A05
:1043A0002DAD65BD8FB8D53D0FB511BE61C84C3E72
:1043B000A8AAAABE2DE9F041C46808210027D4F8B4
:1043C000448084F8311027614179890703D0014680
:1043D00020460CF079FC94F82800400606D5616A66
:1043E0004879800702D020460CF06EFC20460AF087
:1043F0005FFB04F15C051DE04179490704D1016AC6
:1044000011B100F1280515E0816A29608062066A11
:104410000EE0F06858B130680179490606D50168A8
:104420004879800702D020460CF04EFCF760B66851
:10443000002EEED128680028DED120460BF08DFE3C
:1044400025692046C4F840800BF087FEB846204618
:10445000276101F0ACF800222046A16C00F0A3FD1A
:1044600000222046216D00F09EFD206900210544B8
:104470002046A76C266D0CF0E7FE0120E066204682
:104480000AF006FB20460BF068FE2046C4F81080B8
:1044900001F08DF800222046E16C00F05FFD002263
:1044A0002046216D00F05AFD3A462046A16C00F0EE
:1044B0007AFD32462046216D00F075FD204607F05A
:1044C00007FA94F8300080F0030084F83000206987
:1044D0002844BDE8F081000030B50579039C05F063
:1044E0003F05062D0FD0262D27D10068012924DB9A
:1044F00084798C4221DB00EBC1010831116003B1EA
:1045000018600FA030BD03680129D86815DBC568A5
:104510008D4212DB03EB8103DD682D6815600CB161
:10452000DA682260006C6FF0070202EBC1014058AC
:1045300008B1103030BD03A030BD002030BD0000F8
:1045400000000000282A6E6F206E616D6529000052
:104550002DE9F0470127994690460E4682460025F0
:10456000089C11E06C281AD006DC4C280BD053288C
:1045700010D0662806D106E06E2846D074283AD0BE
:1045800075281AD00027761C30780028EAD13846E2
:10459000BDE8F0874946404602F0AAF9F3E73CB18E
:1045A00094F82200800703D5204601F015F901E0B8
:1045B0004FF0FF30C8F81400E5E7B9F1000F12D052
:1045C00099F8060088F8200099F8040026280CD0F5
:1045D000D9F80C00C17988F82210D9F80C0081793B
:1045E00088F82110CFE788F82050012188F82210A0
:1045F00088F82150C7E724B194F8220000F0200089
:1046000000E0002088F82300BDE78CB194F8220078
:1046100080060DD4A16891F82200800708D508F122
:104620000402504602F004FBC8F8080010B1AAE7E3
:10463000C8F8085001A1C8E90151A4E70000000032
:104640002DE9FF5F1C4690460E466FF001096FF0A2
:10465000020BCDE002463368012100989847336889
:1046600022460121009898474FF0FF374A463946C5
:1046700000980DF0ABF930B1234642463146009820
:104680000CF0FCFD03E05946009809F086FFA4EB0E
:104690000805012D7ED008EB040000EBD07040101F
:1046A00082460246336801210098984733684246A3
:1046B0000121009898473A46494600980DF086F93E
:1046C00008B143460FE04946009809F066FF336899
:1046D00022460121009898474A46394600980DF035
:1046E00075F930B123465246314600980CF0C6FDAC
:1046F00003E05946009809F050FF022D7CD0336842
:1047000052460121009898474FF0FF31009809F078
:10471000C8FD621E3368012100989847631E524607
:10472000314600980CF0AAFD4546671E4FF0FF3A4F
:1047300009E0A54203DB31A1009806F035FA4946AD
:10474000009809F02AFF6D1C33682A460121009861
:1047500098474A46514600980DF038F90028E8D1AC
:1047600009E0474503DC25A1009806F01DFA4946FB
:10477000009809F012FF7F1E33683A460121009825
:1047800098475246594600980DF020F90028E8D184
:10479000AF4200E030E01DDA011F009809F0FDFE95
:1047A000621E336801210098984733682A46012128
:1047B000009898472B46621E314600980CF05EFD2B
:1047C000A5EB0800611B88420BDA42466B1E05F11F
:1047D000010809E03B462A46314600980CF04EFDA0
:1047E000B1E76A1C23466C1E31460098FFF728FF8C
:1047F0004046A045FFF62EAFBDE8FF9F696E76618B
:104800006C6964206F726465722066756E6374698A
:104810006F6E20666F7220736F7274696E6700002E
:104820002DE9F0470F46002591460446A8461DA1F4
:10483000FBF74EFD044420782D2802D02B2802D00F
:1048400002E04FF00108641CFBF79EFC064600687E
:104850002178405C10F038000AD020783168095C7B
:10486000202907D0FBF79DFC3738B84204DB002035
:10487000BDE8F0873038F8E705FB0705306814F825
:10488000011F405C10F0380FE7D106A12046FBF76E
:104890001FFD2044B8F1000F00D06D42C9F8005050
:1048A000E6E70000200C0A0D090B00007FB5C56982
:1048B000044600226946284601F091F820460DF092
:1048C0009DFA284603F004F87FBDC068B0F5837FE9
:1048D00010D007DCB0F5827F0CD0A0F580700538D1
:1048E00006D107E0A0F58070153805D00C2801D05E
:1048F000002070470120704708467047F0B591B01E
:104900001E4617460C460546FFF7ECF90090466236
:104910000CAA694628460AF08BFF2821284600F099
:1049200077FA47B1042219A128460AF093FE012123
:104930002846FFF7F3FA28460BF056F829212846B7
:1049400000F066FA28460DF059FA0099686840F2BE
:10495000091288623346D11E284600F04BF9E869F7
:1049600000222C2146683046336A5B1E05F039FB75
:1049700002460C21204602F0D7FC2146304605F0C5
:104980000DFC284600F042FB11B0F0BD73656C666B
:104990000000000010B5914209D0836A58681B6876
:1049A00003E01C5C8C4200D11A54401EF9D210BDA9
:1049B0002DE9F041C0F3C751A1F17F050446172D41
:1049C000A8BFBDE8F0814FF07F471549002D0EDAF2
:1049D000FBF70EFDB7EB400F1ED300281CDD002CAB
:1049E000C8BF4FF07E54B8BF4FF0004414E00D4AEA
:1049F00022FA05F6344208BFBDE8F081FBF7F8FC67
:104A0000B7EB400F08D3002806DD002C03DD4FF480
:104A10000000E8400444B4432046BDE8F0810000B3
:104A2000CAF24971FFFF7F00C2688A4201D001F0DB
:104A300055B8704710B526A1044627A2491C00F0BE
:104A400093F92046FDF74CFD532803D024A12046BE
:104A500001F028F82046FDF743FD18B125A12046B6
:104A600001F020F828A22BA1204600F07DF92BA20E
:104A70000421204601F022FA29A20421204601F057
:104A80001DFA29A20421204601F018FA29A20421C6
:104A9000204601F013FA2AA20421204601F00EFA62
:104AA0002046FDF745FEA0F5AC41783903D027A19B
:104AB000204600F0F7FF2046FDF741FE29498842D5
:104AC00005D02046BDE8104027A100F0EBBF10BD87
:104AD0001B4C7561000000006E6F742061000000C7
:104AE00076657273696F6E206D69736D617463684A
:104AF00020696E00666F726D6174206D69736D61FF
:104B000074636820696E0000636F727275707465FB
:104B10006400000019930D0A1A0A0000696E7400FF
:104B200073697A655F740000496E7374727563749B
:104B3000696F6E006C75615F496E746567657200C0
:104B40006C75615F4E756D6265720000656E6469BB
:104B5000616E6E657373206D69736D617463682037
:104B6000696E00000040B943666C6F617420666F27
:104B7000726D6174206D69736D6174636820696E14
:104B800000000000F8B5C4691346002094F82C20FA
:104B9000082518E00E790A2E14D1CE7A1F78BE426D
:104BA00006D18E7A5F68BE4202D1CD7201208A7230
:104BB0001E78082E06D1B1F908605F68BE4201D1A7
:104BC00001200A8109680029E4D1002811D0187851
:104BD00008280CD00521002000905B68204605F0D5
:104BE000F5F92046BDE8F840012105F0ADBC0021F3
:104BF000F1E7F8BDF8B51C4616460F4605460EF01F
:104C0000A8FA00281ED16868A04205D13946284676
:104C1000BDE8F84000F062BF3146284608F08CFD40
:104C200006463946284608F087FD0246009433467A
:104C300005A1286A06F0FEFC01462846BDE8F840BA
:104C400008F076BDF8BD00002573206578706563B7
:104C50007465642028746F20636C6F7365202573FE
:104C6000206174206C696E652025642900000000B5
:104C700010B504460068884211D1616A0868401E78
:104C80000860401C05D0616A4868421C4A60007890
:104C900002E0606A08F0E7FD2060012010BD0020FE
:104CA00010BD10B5044600680A78904202D04978D9
:104CB000884215D1014620460CF01CFA616A08684A
:104CC000401E0860401C05D0616A4868421C4A606A
:104CD000007802E0606A08F0C6FD2060012010BD87
:104CE000002010BDF8B50546914219DDA8681446AC
:104CF0001E46076A2868426A82B10AA1384606F051
:104D000099FC0090234632460BA1384606F092FCEF
:104D10000146A868BDE8F84008F00ABD0EA0F0E71B
:104D2000F8BD000066756E6374696F6E2061742053
:104D30006C696E6520256400746F6F206D616E79FB
:104D400020257320286C696D69742069732025649F
:104D50002920696E202573006D61696E2066756E6D
:104D60006374696F6E000000FEB5074615460E4677
:104D70000846FBF767FA0446024669463846FDF7DF
:104D80009BFB224669463046FBF77BFA002803D09E
:104D90002946384600F086FEFEBD000070B5154677
:104DA0000C00064611D029782046FBF741FA00286E
:104DB0000BD123462A4605A1304606F03BFC30467F
:104DC000BDE87040032104F0F7BA70BD61747465EA
:104DD0006D707420746F206C6F6164206120257386
:104DE000206368756E6B20286D6F64652069732081
:104DF000272573272900000070B50C4605460DF0E5
:104E000099F8024621462846BDE8704000F0C0BA35
:104E100010B50446FFF708FE2046BDE8104008F034
:104E200048BC000070B51446002222600D460646BC
:104E3000626008F0A7FFE0B118A1304609F011FA4E
:104E40006FF00101304609F065FA08B1154820609D
:104E500015A1304609F005FA6FF00201304609F05D
:104E600059FA08B1134860606FF00301304609F049
:104E700094FB206810B1606800280DD105222946F6
:104E8000304605F00DFE206808B90B4820606068C8
:104E9000002801D10948606070BD00005F5F696E45
:104EA000646578008BDC00085F5F6E6577696E640F
:104EB00065780000FFE400083DE30008EDE300082A
:104EC00070B5054611F8010B0C46252803D05B2868
:104ED00009D0084670BDE868A0421AD10EA1286921
:104EE00005F062FE15E020785E2800D14C1CE868D1
:104EF000A04203D111A1286905F056FE14F8010B58
:104F0000252803D1E868A04200D9641C20785D28D8
:104F1000EDD1601C70BD00006D616C666F726D65D7
:104F200064207061747465726E2028656E647320ED
:104F30007769746820272525272900006D616C6634
:104F40006F726D6564207061747465726E20286D77
:104F5000697373696E6720275D2729002DE9F04783
:104F600016460D4682464FF014084FF0000916E031
:104F7000E9792C6908FA01F027180DE0606850B152
:104F800004F10801504602F0CFFA20B12046C4F8DF
:104F900004900BF0EDFF1434BC42EFD3ED69B54241
:104FA000E6D1BDE8F0872DE9F04790460C468246F1
:104FB0004FF0000926E0E2791420216990400E1894
:104FC00000250AE0E06800EBC5073946504602F0CC
:104FD000ABFA08B1C7F804906D1CA068A842F1D8DC
:104FE0004F4625690BE0686840B12946504602F0FB
:104FF0009BFA18B128466F600BF0BAFF1435B54222
:10500000F1D3E4694445D6D1BDE8F0872DE9F041FC
:1050100006460022D6E90757114628462C6805F0B7
:105020009DFA284602F054FC28694FF08048401C45
:10503000404502D3384606F0D3F92869216B830036
:1050400060698200384606F09DF920632869606136
:105050002869401C404502D3384606F0C1F928694A
:10506000A16B8300A0698200384606F08BF9A0632B
:105070002869A061E869401CB0F1005F02D338469E
:1050800006F0AEF9E869E16AC3002069C20038465B
:1050900006F078F9E062E8692061286A401C404522
:1050A00002D3384606F09CF9286A616B8300E069F8
:1050B0008200384606F066F96063286AE061B5F957
:1050C0002800E16B00EB40008300206A00EB400009
:1050D0008200384606F056F9E063B5F928002062F0
:1050E00095F82B00216CC300E068C200384606F03A
:1050F00049F9206495F82B00E0606868F061F86871
:10510000C068002804DD3846BDE8F04103F0E2BD88
:10511000BDE8F08170B50546C468C16904F0C5F901
:10512000284603F05DFDE8680023016A8A00816972
:10513000284606F027F900232846A26E216E06F0C5
:1051400021F920660020A066284601F0F6FA606882
:1051500024680023291FA446BDE870404FF45F7205
:10516000604700002DE9F843056B0746D0F81C9016
:1051700055F80C0F0C4600EB0416107B317B904663
:10518000814210D2484601F017FE006813A110308A
:1051900000903268B3681032386A06F04BFA014664
:1051A00038460CF04DF8D8F804204846716805F0F0
:1051B0002CF9102109E0286801EB0413C71800EB53
:1051C0000412C9CF82E8C900641C6868401EA0426E
:1051D000F1DC6868401E6860BDE8F8833C676F7466
:1051E0006F2025733E206174206C696E65202564F4
:1051F000206A756D707320696E746F207468652005
:1052000073636F7065206F66206C6F63616C20271D
:105210002573270038B504694461009313460A4694
:10522000032104F0D3FE38BD2DE9F84F88461E4611
:10523000174682461946DDF8289004F041FF0546DE
:105240004946504604F03CFF04464946504601F0AA
:105250000DFA3146504601F009FA37B9B8F11F0F7F
:1052600003D028462546044601272B463A464146A8
:105270005046009400F0ACF870600B203070BDE830
:10528000F88F2DE9F84F9846DDF8289017460C4620
:1052900082461A2905D8A4F10D0100F0A5F80028CE
:1052A00035D1192C15D01A2C13D01C2C11D04146F5
:1052B000504604F005FF06463946504604F000FF0C
:1052C0000546B0420BDD3946504601F0CFF9414664
:1052D0000AE000263946504604F03AFFF0E741461E
:1052E000504601F0C3F93946504601F0BFF92B464C
:1052F000002221465046009604F068FE78600C209B
:10530000387049465046BDE8F84F04F065BFBDE827
:10531000F88F2E2242EA811104F012BE38B50C46F5
:10532000054604F095FE20780D2824D2DFE800F031
:1053300023070907090909102323230B1000022062
:1053400018E0032016E02146284602F0ADF812E0EE
:105350002146284600F05DFA2146284601F086F9EC
:105360000020009002461B212846636804F02EFEB0
:1053700060600C202070D4E90212C4E902212846A2
:105380000BF000FE2846A168BDE838400BF0FABDDE
:1053900010B50C46C069114605F0CCF9024620460E
:1053A000BDE81040042101F0BFBF1FB504466946A7
:1053B00000F002FD9DF80000012802D103208DF8C5
:1053C00000006946E06904F037FF039804B010BD9F
:1053D00038B5044604980090204604F0F7FD2046B6
:1053E000BDE8384004F0A4BFF0B587B00E460546CE
:1053F0001F46144603A910460DF0B8FF50B305A987
:1054000038460DF0B3FF28B305AA03A930460EF0C5
:105410004BFBF8B101A80090A86805AB03AA006A8D
:10542000314605F0F5FF029813280ED0019D29465C
:105430002846FBF763FA0DD115F0FF4F0AD005207F
:1054400020706560012007B0F0BD06202070019833
:105450006060F7E70020F6E72DE9F0434FF0000821
:1054600089B0D0F80490C5690F46044643464246C9
:105470000B212846CDF8008004F0A8FD0646CDF8A3
:105480002080CDF8188032460C213846CDF81C809B
:10549000059701F049FF0022114601A801F044FFE1
:1054A0003946E06904F07AFE7B212046FFF7B0FC24
:1054B000E0687D2830D09DF8040001A980B128461D
:1054C00004F06CFE089847468DF80480322807D116
:1054D00003460598079A4168284605F06DF8089735
:1054E000E06801AF5B284CD0B0F5927F04D1204634
:1054F00008F0AEF83D2844D03946204602F0A6FA1E
:105500002C2120460DF025FE0028D1D13B2120463C
:105510000DF01FFE0028CBD14B467B227D2120467B
:10552000FFF768FB089801A980B19DF804000D28D9
:105530002CD00E282AD010B1284604F02FFEDDE929
:10554000072305984168284605F036F8079806F0C5
:105550005DF801462868006B50F8262061F3DF52A1
:1055600040F82620069806F051F801462868006B9E
:1055700050F8262061F3963240F8262009B0BDE8A5
:10558000F083394620460BF0F1FBB9E74FF0FF34CA
:105590002246284605F066F80598079A2346416892
:1055A000284605F009F80798401E0790CEE72DE938
:1055B000F04106460027F46C0025F76408E0304609
:1055C000CC690DF01FFF18B130460AF0C6FD012569
:1055D0002100F4D1002DEED1BDE8F08110B50B4CC7
:1055E00024789C4204D006E011F8013B00F8013B0E
:1055F000521EF9D210BD1044401E03E011F8013BC9
:1056000000F80139521EF9D210BD00001041010806
:105610002DE9F843044602464F486946B0EB420F75
:1056200009D94FF0E640B0EB420F94BF00204FF095
:10563000FF30009030E0494B22F00040834271D9A6
:1056400047492046FAF72CFFFBF75CFA8046FBF748
:10565000EDF800F00300009042494046FAF720FFC1
:10566000054641494046FAF71BFF06463F4940467A
:10567000FAF716FF07463E494046FAF711FF214662
:10568000FAF70BFF3946FAF705FF3146FAF702FF42
:105690002946FAF7FFFE04462546009C002C45DB10
:1056A000294614F0010F08461CD0FAF7F9FE064609
:1056B0003049FAF7F5FE3049FAF7EFFE3146FAF7CE
:1056C000EFFE2E49FAF794FE3146FAF7E9FE294635
:1056D000FAF7E6FE2946FAF78BFE14F0020F1CD00B
:1056E000BDE8F883FAF7DCFE05462549FAF7D8FE4F
:1056F0002449FAF77DFE2946FAF7D2FE2249FAF745
:1057000077FE2946FAF7CCFE4FF07E51FAF770FE8D
:1057100014F0020F08BFBDE8F88380F00040BDE838
:10572000F883FFE71046FDF70DFBB4E76800B0F122
:105730007F4F3CBF4FF07E50BDE8F88307D14FF05C
:105740000100FDF721FCBDE8F843FDF7E5BA284666
:10575000BDE8F843FDF7DBBAB61F927E490E494615
:1057600083F9223F1A61342C0020A23300A0FD39B6
:105770000000C93F336D4C39DA82083CA0AA2ABE2A
:10578000B93AB2BACA9F2A3DDDFFFFBE10B50C463A
:10579000FEF7D9FB002807D005F0A4FE04EB80003B
:1057A0000168491C0160012010BD2DE9F04115463A
:1057B0000F4611321946069E03F066FA86600026EF
:1057C000044686712A4639461030FAF70DFD6019F5
:1057D00006742046BDE8F08110B5044600680068F4
:1057E000C068806B48B1204600F00AF8216809685B
:1057F000C968896B51F8200010BD4FF0FF3010BD13
:10580000416900680068C068006B081A8010401E7B
:10581000704770B5054608780C4607280CD0012162
:10582000284604F091FE95F82C2021462846BDE834
:105830007040521E00F001B870BDF8B515460C4618
:10584000064604F005FC207800210D283FD2DFE851
:1058500000F03E070D0D161822323E3E3E3E280057
:1058600001222946304604F079FD2DE000910228FE
:1058700003D000232A46032123E00123FAE76268CC
:1058800004E03046616804F0A2FD08E02946304695
:1058900004F0ADFB18E03046616804F03BFD0246C1
:1058A000F4E730686168006B00EB8100016865F324
:1058B0008D11016008E06368AB4205D000912A4673
:1058C0000021304604F082FB072065602070F8BD9F
:1058D0002DE9FC5F374E4FF00008044637684FF063
:1058E000FF3A6FF00109C6F8008031E01DBB554654
:1058F000204608F08EFA834600222F49204608F001
:105900003DFC01225946204608F092FD4146CDF863
:1059100000805B462A462046CDF8048008F0D2FB82
:10592000054652465946204608F082FD4946204623
:1059300008F033FECDB300225146204608F0B3FEF6
:1059400001461EA001F05CFE4946204608F025FEF7
:105950000021204608F021FE012120460AF09AFD90
:1059600098B12046FEF770FA050003D0204609F0F2
:10597000E1FD054652460121204608F059FD494601
:10598000204608F00AFE681CB0D10021204608F02D
:1059900004FE01220A4B11460AA000F0D9FF084874
:1059A000002000BF3760BDE8FC9FFFE7204601F004
:1059B0003BFECDE700000020B5F400086C756100E7
:1059C000180000200A00000010B508F022FA401E5E
:1059D00010BD002381681A46103903F0D7B98A73C5
:1059E00090F82A200A738268126BD2694A60826832
:1059F000126B12698A6000224A73C2680A60C16031
:105A000070470000026A05A332F86A1F491C89B278
:105A10001180C069C822FFF765B9000043206C659A
:105A200076656C730000000038B50021C4680091F1
:105A3000022184F831106A4604F134010DF001FAB4
:105A4000A063009838BD0000F8B517460D4606461D
:105A5000FDF7FEF80068FAF759FC044600223946C3
:105A6000304608F020FE431C2A4609A13046009427
:105A700008F0B3FB4FF0FF323946304608F0D8FC4F
:105A80006FF00101304608F088FD0720F8BD0000E6
:105A900063616E6E6F742025732025733A20257321
:105AA0000000000010B50446C2680B46006804A15F
:105AB00005F0C0FD2068BDE81040032103F07CBC68
:105AC00025733A20257320707265636F6D70696C61
:105AD0006564206368756E6B0000000010B50446B5
